:100000000C942A000C9447000C9447000C94470071
:100010000C9447000C9447000C9447000C94470044
:100020000C9447000C9447000C9447000C94470034
:100030000C9447000C9447000C9447000C94470024
:100040000C9447000C9447000C9447000C94470014
:100050000C94470011241FBECFE5D8E0DEBFCDBF12
:1000600011E0A0E6B0E0E4E5FEE202C005900D92EA
:10007000A637B107D9F711E0A6E7B1E001C01D929C
:10008000AD37B107E1F70E94A7140C9428170C9420
:100090000000EF92FF920F931F937B018C0120E0F1
:1000A00030E040E05FE40E94F50388238CF0C80153
:1000B000B70120E030E040E05FE40E94C1010E940F
:1000C000B3049B01AC01205030404040504806C072
:1000D000C801B7010E94B3049B01AC01B901CA0178
:1000E0001F910F91FF90EF900895A0E0B0E0EBE733
:1000F000F0E00C94F116DC012B01FA019C91923096
:1001000008F439C1EB018881823008F433C194309E
:1001100069F4843009F02FC111969C91119789815F
:10012000981709F428C1A4E6B0E025C1843009F489
:1001300021C18230A9F4923009F01DC19A01AD01AC
:1001400088E0EA010990AE01E90109929E0181501F
:10015000C1F7E201898111969C918923818308C1AD
:10016000923009F407C112962D903C901397EB0141
:100170008A819B811496AD90BD90CD90DC901797AD
:10018000EC80FD800E811F819101281B390BB90184
:1001900037FF04C066277727621B730B6032710537
:1001A0000CF061C0121613066CF537014801062EDB
:1001B00004C096948794779467940A94D2F721E0C8
:1001C00030E040E050E004C0220F331F441F551FB1
:1001D0006A95D2F721503040404050402E213F21B7
:1001E00040235123211531054105510521F021E01E
:1001F00030E040E050E079018A01E628F72808293C
:1002000019293CC0232BD1F1260E371E350146019A
:10021000062E04C096948794779467940A94D2F734
:1002200021E030E040E050E004C0220F331F441FC3
:10023000551F6A95D2F721503040404050402A2146
:100240003B214C215D21211531054105510521F04E
:1002500021E030E040E050E059016A01A628B728CB
:10026000C828D9280BC0821593052CF01C01AA249C
:10027000BB24650103C0EE24FF24870111969C91E5
:10028000D20111968C91981709F445C0992339F041
:10029000A80197012A193B094C095D0906C0A6016E
:1002A00095012E193F09400B510B57FD08C01182D3
:1002B0003382228224833583468357831DC081E0A5
:1002C00081833382228288279927DC01821B930B4A
:1002D000A40BB50B84839583A683B7830DC0220F2F
:1002E000331F441F551F24833583468357838281E0
:1002F000938101979383828324813581468157813D
:10030000DA01C9010197A109B1098F5F9F4FAF4F72
:10031000BF4328F30BC0918333822282EA0CFB1C7B
:100320000C1D1D1DE482F5820683178383E0808304
:10033000248135814681578157FF1AC0C901AA27F8
:1003400097FDA095BA2F81709070A070B0705695EF
:10035000479537952795822B932BA42BB52B848318
:100360009583A683B7838281938101969383828349
:10037000DF0101C0D201CD01CDB7DEB7E2E10C94BF
:100380000D17A0E2B0E0E7ECF1E00C94FD166983F4
:100390007A838B839C832D833E834F835887E9E048
:1003A000EE2EF12CEC0EFD1ECE010196B7010E943F
:1003B000A4068E010F5E1F4FCE010596B8010E9464
:1003C000A4068A8991E089278A8BC701B801AE010A
:1003D000475E5F4F0E9475000E94CF05A096E6E041
:1003E0000C941917A0E2B0E0E8EFF1E00C94FD16D0
:1003F00069837A838B839C832D833E834F835887C5
:10040000F9E0EF2EF12CEC0EFD1ECE010196B701A6
:100410000E94A4068E010F5E1F4FCE010596B80103
:100420000E94A406C701B801AE01475E5F4F0E945B
:1004300075000E94CF05A096E6E00C941917A0E283
:10044000B0E0E5E2F2E00C94F11669837A838B83E5
:100450009C832D833E834F835887CE010196BE0136
:10046000675F7F4F0E94A406CE010596BE016F5EB6
:100470007F4F0E94A4069985923088F08989823046
:10048000C8F0943019F4823051F404C0843029F457
:10049000923081F484E690E0C6C0923049F420E0C6
:1004A0009A858A89981321E02A87CE010996BBC0D4
:1004B000823049F420E09A858A89981321E02A8BBA
:1004C000CE014196B0C02D843E844F8458886D88FB
:1004D0007E888F88988CEE24FF248701AA24BB2471
:1004E000650140E050E060E070E0E0E0F0E0C10174
:1004F00081709070892BE9F0E60CF71C081D191D1E
:100500009A01AB012A0D3B1D4C1D5D1D80E090E062
:10051000A0E0B0E0E614F7040805190520F481E036
:1005200090E0A0E0B0E0BA01A901480F591F6A1F8E
:100530007B1FAA0CBB1CCC1CDD1C97FE08C081E0F5
:1005400090E0A0E0B0E0A82AB92ACA2ADB2A3196B6
:10055000E032F10549F0660C771C881C991C569412
:10056000479437942794C3CFFA85EA892B893C892D
:100570008B859C85280F391F2E5F3F4F17C0CA01FE
:1005800081709070892B61F016950795F794E79428
:1005900080E090E0A0E0B0E8E82AF92A0A2B1B2BC3
:1005A00076956795579547952F5F3F4F77FDE7CF36
:1005B0000CC0440F551F661F771F17FD4160EE0CDE
:1005C000FF1C001F111F21503040403090E05907A0
:1005D00090E0690790E4790760F32B8F3C8FDB0193
:1005E000CA018F779070A070B07080349105A1051A
:1005F000B10561F447FD0AC0E114F10401051105DC
:1006000029F0405C5F4F6F4F7F4F40781A8EFE1786
:1006100011F081E08A8F4D8F5E8F6F8F78A383E01A
:10062000898FCE0149960E94CF05A096E2E10C94F5
:100630000D17A8E1B0E0EFE1F3E00C94F91669833F
:100640007A838B839C832D833E834F835887B9E0C5
:10065000EB2EF12CEC0EFD1ECE010196B7010E948F
:10066000A4068E010F5E1F4FCE010596B8010E94B1
:10067000A4062985223008F47EC03989323010F46E
:10068000B8017CC08A859A8989278A87243011F02D
:10069000223031F4231709F06EC064E670E06EC0BA
:1006A000343039F41D861E861F86188A1C861B86E8
:1006B00004C0323021F484E08987B7015FC02B8504
:1006C0003C858B899C89281B390B3C872B87ED84C3
:1006D000FE840F851889AD88BE88CF88D88CEA142F
:1006E000FB040C051D0540F4EE0CFF1C001F111F40
:1006F000215030403C872B8720E030E040E050E044
:1007000080E090E0A0E0B0E460E070E0EA14FB0478
:100710000C051D0540F0282B392B4A2B5B2BEA18C2
:10072000FB080C091D09B695A79597958795EE0CC2
:10073000FF1C001F111F6F5F7F4F6F31710531F775
:10074000DA01C9018F779070A070B0708034910584
:10075000A105B10561F427FD0AC0E114F10401050A
:10076000110529F0205C3F4F4F4F5F4F20782D87B8
:100770003E874F87588BBE01675F7F4FCB010E943A
:10078000CF056896EAE00C941517A8E1B0E0EBEC11
:10079000F3E00C94FD1669837A838B839C832D830D
:1007A0003E834F83588789E0E82EF12CEC0EFD1E26
:1007B000CE010196B7010E94A4068E010F5E1F4F65
:1007C000CE010596B8010E94A4068985823040F0CA
:1007D0008989823028F0C701B8010E941C0701C036
:1007E0008FEF6896E6E00C941917A8E1B0E0EBEF04
:1007F000F3E00C94FD1669837A838B839C832D83AD
:100800003E834F83588789E0E82EF12CEC0EFD1EC5
:10081000CE010196B7010E94A4068E010F5E1F4F04
:10082000CE010596B8010E94A4068985823040F069
:100830008989823028F0C701B8010E941C0701C0D5
:100840008FEF6896E6E00C941917A8E1B0E0EBE2B0
:10085000F4E00C94FD1669837A838B839C832D834B
:100860003E834F83588789E0E82EF12CEC0EFD1E65
:10087000CE010196B7010E94A4068E010F5E1F4FA4
:10088000CE010596B8010E94A4068985823040F009
:100890008989823028F0C701B8010E941C0701C075
:1008A00081E06896E6E00C941917A8E0B0E0EBE56B
:1008B000F4E00C94FA169B01AC0183E08983DA0121
:1008C000C9018827B7FD83959927AA27BB27B82E8A
:1008D000211531054105510519F482E089833AC09B
:1008E0008823A9F0203080E0380780E0480780E8BE
:1008F000580729F460E070E080E09FEC30C0EE24FF
:10090000FF248701E21AF30A040B150B02C07901D8
:100910008A018EE1C82ED12CDC82CB82ED82FE8250
:100920000F831887C801B7010E9480050197181628
:10093000190684F4082E04C0EE0CFF1C001F111FC2
:100940000A94D2F7ED82FE820F831887C81AD90A5B
:10095000DC82CB82BA82CE0101960E94CF05289616
:10096000E9E00C941617ACE0B0E0E9EBF4E00C948D
:10097000011769837A838B839C83CE010196BE0124
:100980006B5F7F4F0E94A4068D81823061F18230BF
:1009900050F1843021F48E81882351F12EC02F81B3
:1009A000388537FD20C06E812F3131051CF066235C
:1009B000F9F023C08EE190E0821B930B29853A85E4
:1009C0004B855C8504C056954795379527958A9544
:1009D000D2F76623B1F050954095309521953F4F61
:1009E0004F4F5F4F0EC020E030E040E050E009C0C4
:1009F0002FEF3FEF4FEF5FE704C020E030E040E033
:100A000050E8B901CA012C96E2E00C941D17A8E049
:100A1000B0E0EDE0F5E00C94F9167B018C01611576
:100A200071058105910519F482E0898360C083E036
:100A300089838EE1C82ED12CDC82CB82ED82FE82AE
:100A40000F831887C801B7010E948005FC01319708
:100A5000F7FF3BC0222733272E1B3F0B57016801AE
:100A6000022E04C0D694C794B794A7940A94D2F7E0
:100A700040E050E060E070E081E090E0A0E0B0E0B5
:100A800004C0880F991FAA1FBB1F2A95D2F7019790
:100A9000A109B1098E219F21A023B1230097A105AF
:100AA000B10521F041E050E060E070E04A295B29A7
:100AB0006C297D294D835E836F8378878EE190E07A
:100AC0008E1B9F0B9C838B8312C0309781F00E2E60
:100AD00004C0EE0CFF1C001F111F0A94D2F7ED8218
:100AE000FE820F831887CE1ADF0ADC82CB821A823D
:100AF000CE0101960E94CF052896EAE00C941517C6
:100B0000EF92FF920F931F937B018C0180E0E81618
:100B100080E0F80681E0080780E0180788F48FEF8E
:100B2000E816F1040105110531F028F088E090E0A5
:100B3000A0E0B0E017C080E090E0A0E0B0E012C01C
:100B400080E0E81680E0F80680E0080781E01807FA
:100B500028F088E190E0A0E0B0E004C080E190E0FF
:100B6000A0E0B0E020E230E040E050E0281B390B8C
:100B70004A0B5B0B04C016950795F794E7948A958A
:100B8000D2F7F701E459FF4F8081281B3109410951
:100B90005109C9011F910F91FF90EF900895DF92C5
:100BA000EF92FF920F931F93FC01E480F580068182
:100BB0001781D1808081823048F480E090E0A0E10C
:100BC000B0E0E82AF92A0A2B1B2BA5C0843009F4CF
:100BD0009FC0823021F4EE24FF24870105C0E11478
:100BE000F1040105110519F4E0E0F0E096C062811E
:100BF00073819FEF623879070CF05BC022E83FEF0A
:100C0000261B370B2A3131052CF020E030E040E084
:100C100050E02AC0B801A701022E04C0769567955E
:100C2000579547950A94D2F781E090E0A0E0B0E0B4
:100C300004C0880F991FAA1FBB1F2A95D2F70197DE
:100C4000A109B1098E219F21A023B1230097A105FD
:100C5000B10521F081E090E0A0E0B0E09A01AB01A5
:100C6000282B392B4A2B5B2BDA01C9018F77907027
:100C7000A070B07080349105A105B10539F427FF4B
:100C800009C0205C3F4F4F4F5F4F04C0215C3F4F76
:100C90004F4F5F4FE0E0F0E02030A0E03A07A0E0E7
:100CA0004A07A0E45A0710F0E1E0F0E079018A0178
:100CB00027C06038710564F5FB01E158FF4FD8018A
:100CC000C7018F779070A070B07080349105A10536
:100CD000B10539F4E7FE0DC080E490E0A0E0B0E09B
:100CE00004C08FE390E0A0E0B0E0E80EF91E0A1F18
:100CF0001B1F17FF05C016950795F794E7943196CB
:100D000087E016950795F794E7948A95D1F705C083
:100D1000EE24FF248701EFEFF0E06E2F6795662742
:100D20006795902F9F77D794DD24D7948E2F869543
:100D3000492F462B582F5D29B701CA011F910F91EA
:100D4000FF90EF90DF900895FC01DB01408151811D
:100D50002281622F6F7770E0221F2227221F93814A
:100D6000892F880F822B282F30E0991F9927991FF0
:100D700011969C93119721153105A9F5411551053F
:100D80006105710511F482E037C082E89FEF139688
:100D90009C938E9312979A01AB0167E0220F331F49
:100DA000441F551F6A95D1F783E08C930DC0220F25
:100DB000331F441F551F12968D919C9113970197D5
:100DC00013969C938E931297203080E0380780E032
:100DD000480780E4580758F314962D933D934D939C
:100DE0005C93179708952F3F310579F4411551050C
:100DF0006105710519F484E08C93089564FF03C0C4
:100E000081E08C9312C01C9210C02F573040139673
:100E10003C932E93129783E08C9387E0440F551FE9
:100E2000661F771F8A95D1F7706414964D935D9372
:100E30006D937C93179708951F93DC01FB019C91A0
:100E4000923008F447C08081823008F443C0943067
:100E500051F411961C91843099F58181682F70E0CE
:100E6000611B71093FC0843021F0923031F482302F
:100E7000B9F18181882389F12DC011961C911197B8
:100E80008230F1F081811817D9F412962D913C919E
:100E90001397828193818217930794F0281739075B
:100EA000BCF014968D919D910D90BC91A02D248144
:100EB000358146815781281739074A075B0718F49F
:100EC000112341F00AC082179307A407B50740F425
:100ED000112319F061E070E005C06FEF7FEF02C0F1
:100EE00060E070E0CB011F910895DF93CF93CDB701
:100EF000DEB7AC970FB6F894DEBF0FBECDBF8CA7A0
:100F000080EF8BA781E060E040E00E94070E81E067
:100F100061E040E00E94070E9BA58CA589238BA76A
:100F200080E06BA50E94200F81E062E041E00E941A
:100F3000070E80E090E0A0E0B0E48FA398A7A9A7F7
:100F4000BAA76FA178A589A59AA520E030E04AEF5D
:100F500054E40E941F02DC01CB018BA39CA3ADA330
:100F6000BEA36BA17CA18DA19EA120E030E040E852
:100F70005FE30E94250488232CF481E090E09AA38B
:100F800089A33FC06BA17CA18DA19EA120E03FEF72
:100F90004FE757E40E94C50318164CF56FA178A5DA
:100FA00089A59AA520E030E040E251E40E941F02AA
:100FB000DC01CB01BC01CD010E944900DC01CB0169
:100FC0009AA389A30FC088EC90E098A38F8F8F8D90
:100FD00098A10197F1F798A38F8F89A19AA1019702
:100FE0009AA389A389A19AA1009769F714C06BA15C
:100FF0007CA18DA19EA10E944900DC01CB019AA396
:1010000089A389A19AA19E8F8D8F8D8D9E8D019729
:10101000F1F79E8F8D8F81E062E040E00E94070E25
:1010200080917601882309F48CC080EF8BA78BA573
:10103000982F90958CA589238BA78BA5982F929597
:10104000907F80E0692F0E94200F81E062E041E004
:101050000E94070E80E090E0A0E0B0E4898F9A8FB4
:10106000AB8FBC8F698D7A8D8B8D9C8D20E030E0AD
:101070004AEF54E40E941F02DC01CB018D8B9E8B52
:10108000AF8BB88F6D897E898F89988D20E030E095
:1010900040E85FE30E94250488232CF481E090E07F
:1010A0009C8B8B8B3FC06D897E898F89988D20E0CA
:1010B0003FEF4FE757E40E94C50318164CF5698DC2
:1010C0007A8D8B8D9C8D20E030E040E251E40E94CF
:1010D0001F02DC01CB01BC01CD010E944900DC01F3
:1010E000CB019C8B8B8B0FC088EC90E09A8B898B0B
:1010F00089899A890197F1F79A8B898B8B899C89C9
:1011000001979C8B8B8B8B899C89009769F714C006
:101110006D897E898F89988D0E944900DC01CB0101
:101120009C8B8B8B8B899C89988B8F878F859889DB
:101130000197F1F7988B8F8781E062E040E00E9491
:10114000070E80E090E0A0E0B0E48B879C87AD873D
:10115000BE876B857C858D859E8520E030E04AEFDB
:1011600054E40E941F02DC01CB018F839887A9877A
:10117000BA876F81788589859A8520E030E040E8DC
:101180005FE30E94250488232CF481E090E09E8395
:101190008D833FC06F81788589859A8520E03FEFF8
:1011A0004FE757E40E94C50318164CF56B857C8504
:1011B0008D859E8520E030E040E251E40E941F02D0
:1011C000DC01CB01BC01CD010E944900DC01CB0157
:1011D0009E838D830FC088EC90E09C838B838B81F2
:1011E0009C810197F1F79C838B838D819E81019770
:1011F0009E838D838D819E81009769F714C06F81D6
:10120000788589859A850E944900DC01CB019E83FF
:101210008D838D819E819A83898389819A810197AB
:10122000F1F79A838983AC960FB6F894DEBF0FBEB0
:10123000CDBFCF91DF910895DF93CF9300D0CDB78D
:10124000DEB71A8281E060E040E00E94070E81E094
:1012500061E041E00E94070E19821CC09E012E5FD2
:101260003F4F80E06981A9010E946E0F8A81282F7B
:1012700030E08981882F90E0A90102C0440F551FFA
:101280008A95E2F7CA01982F8A81890F8A8389811A
:101290008F5F89838981873008F38A810F900F904F
:1012A000CF91DF910895DF93CF93CDB7DEB7AC97A1
:1012B0000FB6F894DEBF0FBECDBF8CA780EF8BA713
:1012C00081E060E041E00E94070E81E061E040E0E3
:1012D0000E94070E9BA58CA589238BA780E06BA598
:1012E0000E94200F81E062E041E00E94070E80E052
:1012F00090E0A0E0B0E48FA398A7A9A7BAA76FA138
:1013000078A589A59AA520E030E04AEF54E40E9430
:101310001F02DC01CB018BA39CA3ADA3BEA36BA1D9
:101320007CA18DA19EA120E030E040E85FE30E9417
:10133000250488232CF481E090E09AA389A33FC080
:101340006BA17CA18DA19EA120E03FEF4FE757E468
:101350000E94C50318164CF56FA178A589A59AA51A
:1013600020E030E040E251E40E941F02DC01CB01AA
:10137000BC01CD010E944900DC01CB019AA389A3E5
:101380000FC088EC90E098A38F8F8F8D98A1019764
:10139000F1F798A38F8F89A19AA101979AA389A3A6
:1013A00089A19AA1009769F714C06BA17CA18DA1B6
:1013B0009EA10E944900DC01CB019AA389A389A1C7
:1013C0009AA19E8F8D8F8D8D9E8D0197F1F79E8FA7
:1013D0008D8F81E062E040E00E94070E80EF8BA7D6
:1013E0008BA5982F90958CA589238BA78BA5982FDB
:1013F0009295907F80E0692F0E94200F81E062E04B
:1014000041E00E94070E80E090E0A0E0B0E4898F08
:101410009A8FAB8FBC8F698D7A8D8B8D9C8D20E0E0
:1014200030E04AEF54E40E941F02DC01CB018D8BB7
:101430009E8BAF8BB88F6D897E898F89988D20E0C8
:1014400030E040E85FE30E94250488232CF481E02B
:1014500090E09C8B8B8B3FC06D897E898F89988DA6
:1014600020E03FEF4FE757E40E94C50318164CF504
:10147000698D7A8D8B8D9C8D20E030E040E251E4C7
:101480000E941F02DC01CB01BC01CD010E9449007A
:10149000DC01CB019C8B8B8B0FC088EC90E09A8B8E
:1014A000898B89899A890197F1F79A8B898B8B8926
:1014B0009C8901979C8B8B8B8B899C89009769F702
:1014C00014C06D897E898F89988D0E944900DC0146
:1014D000CB019C8B8B8B8B899C89988B8F878F857D
:1014E00098890197F1F7988B8F8781E062E040E05F
:1014F0000E94070E80E090E0A0E0B0E48B879C871C
:10150000AD87BE876B857C858D859E8520E030E02C
:101510004AEF54E40E941F02DC01CB018F839887BD
:10152000A987BA876F81788589859A8520E030E020
:1015300040E85FE30E94250488232CF481E090E0DA
:101540009E838D833FC06F81788589859A8520E051
:101550003FEF4FE757E40E94C50318164CF56B8523
:101560007C858D859E8520E030E040E251E40E943C
:101570001F02DC01CB01BC01CD010E944900DC014E
:10158000CB019E838D830FC088EC90E09C838B837E
:101590008B819C810197F1F79C838B838D819E8148
:1015A00001979E838D838D819E81009769F714C07A
:1015B0006F81788589859A850E944900DC01CB017D
:1015C0009E838D838D819E819A83898389819A816F
:1015D0000197F1F79A83898386E00E947507AC969C
:1015E0000FB6F894DEBF0FBECDBFCF91DF91089547
:1015F000DF93CF93CDB7DEB7E8970FB6F894DEBF91
:101600000FBECDBF80E090E0A0E2B2E48DAB9EAB18
:10161000AFABB8AF6DA97EA98FA998AD20E030E03F
:101620004AEF54E40E941F02DC01CB0189AB9AAB64
:10163000ABABBCAB69A97AA98BA99CA920E030E02F
:1016400040E85FE30E94250488232CF481E090E0C9
:1016500098AB8FA73FC069A97AA98BA99CA920E064
:101660003FEF4FE757E40E94C50318164CF56DA9EC
:101670007EA98FA998AD20E030E040E251E40E94BD
:101680001F02DC01CB01BC01CD010E944900DC013D
:10169000CB0198AB8FA70FC088EC90E09EA78DA7D9
:1016A0008DA59EA50197F1F79EA78DA78FA598A957
:1016B000019798AB8FA78FA598A9009769F714C0D9
:1016C00069A97AA98BA99CA90E944900DC01CB01D8
:1016D00098AB8FA78FA598A99CA78BA78BA59CA536
:1016E0000197F1F79CA78BA780E20E94750780E223
:1016F0000E94750780E80E94750780E090E0A0E8EE
:10170000BFE38FA398A7A9A7BAA76FA178A589A5BA
:101710009AA520E030E04AEF54E40E941F02DC0169
:10172000CB018BA39CA3ADA3BEA36BA17CA18DA178
:101730009EA120E030E040E85FE30E94250488237A
:101740002CF481E090E09AA389A33FC06BA17CA117
:101750008DA19EA120E03FEF4FE757E40E94C50313
:1017600018164CF56FA178A589A59AA520E030E060
:1017700040E251E40E941F02DC01CB01BC01CD011B
:101780000E944900DC01CB019AA389A30FC088EC19
:1017900090E098A38F8F8F8D98A10197F1F798A370
:1017A0008F8F89A19AA101979AA389A389A19AA150
:1017B000009769F714C06BA17CA18DA19EA10E9426
:1017C0004900DC01CB019AA389A389A19AA19E8F2C
:1017D0008D8F8D8D9E8D0197F1F79E8F8D8F80E07F
:1017E0000E94750780EC0E94750780E090E0A0E8F9
:1017F000BFE3898F9A8FAB8FBC8F698D7A8D8B8D6C
:101800009C8D20E030E04AEF54E40E941F02DC018E
:10181000CB018D8B9E8BAF8BB88F6D897E898F8925
:10182000988D20E030E040E85FE30E9425048823A3
:101830002CF481E090E09C8B8B8B3FC06D897E897E
:101840008F89988D20E03FEF4FE757E40E94C50352
:1018500018164CF5698D7A8D8B8D9C8D20E030E0CB
:1018600040E251E40E941F02DC01CB01BC01CD012A
:101870000E944900DC01CB019C8B8B8B0FC088EC54
:1018800090E09A8B898B89899A890197F1F79A8BD5
:10189000898B8B899C8901979C8B8B8B8B899C89ED
:1018A000009769F714C06D897E898F89988D0E9491
:1018B0004900DC01CB019C8B8B8B8B899C89988B9D
:1018C0008F878F8598890197F1F7988B8F8780E0B4
:1018D0000E94750780E10E94750780E090E0A0E01B
:1018E000B0E48B879C87AD87BE876B857C858D85B3
:1018F0009E8520E030E04AEF54E40E941F02DC01A4
:10190000CB018F839887A987BA876F81788589856E
:101910009A8520E030E040E85FE30E9425048823B8
:101920002CF481E090E09E838D833FC06F817885A9
:1019300089859A8520E03FEF4FE757E40E94C50371
:1019400018164CF56B857C858D859E8520E030E0F2
:1019500040E251E40E941F02DC01CB01BC01CD0139
:101960000E944900DC01CB019E838D830FC088EC6F
:1019700090E09C838B838B819C810197F1F79C8302
:101980008B838D819E8101979E838D838D819E8126
:10199000009769F714C06F81788589859A850E94C0
:1019A0004900DC01CB019E838D838D819E819A83CA
:1019B000898389819A810197F1F79A83898381E0EC
:1019C00080937601E8960FB6F894DEBF0FBECDBFC8
:1019D000CF91DF910895DF93CF9300D00F92CDB7D1
:1019E000DEB79B838A8319820EC08981282F30E05D
:1019F0008A819B81FC01E20FF31F80810E945309C1
:101A000089818F5F89838981282F30E08A819B813A
:101A1000FC01E20FF31F8081882339F70F900F90AC
:101A20000F90CF91DF910895DF93CF9300D00F9265
:101A3000CDB7DEB78A836B838A81882351F48B818B
:101A4000803120F08B81805C898309C08B81898300
:101A500006C08A81813019F48B81805C89838981F9
:101A600080580E9475070F900F900F90CF91DF91D3
:101A70000895DF93CF93CDB7DEB727970FB6F894CD
:101A8000DEBF0FBECDBF9C838B836D834E832F83C0
:101A90001A828D81882F90E0880F991F880F991FD7
:101AA000880F991F8A838A81805C0E94750719823A
:101AB0000EC08981282F30E08B819C81FC01E20FD0
:101AC000F31F80810E94530989818F5F89838981F7
:101AD000883078F38E816F810E94140D8D810E9471
:101AE000530927960FB6F894DEBF0FBECDBFCF9136
:101AF000DF910895DF93CF9300D000D0CDB7DEB74C
:101B00009C838B838B819C810E94B10D8A838A8107
:101B100089831DC0898181500E94DC0D9C018B81CD
:101B20009C81B9010E94DD16CB01805D0E945309A2
:101B3000898181500E94DC0D9C018B819C81B901BF
:101B40000E94DD169C838B838981815089838981E2
:101B5000181604F30F900F900F900F90CF91DF9114
:101B60000895DF93CF9300D000D0CDB7DEB79B832D
:101B70008A8319828A819B81009781F481E08C831A
:101B800013C08A819B812AE030E0B9010E94DD16F2
:101B9000CB019B838A8389818F5F89838A819B8123
:101BA000009779F789818C838C810F900F900F902B
:101BB0000F90CF91DF910895DF93CF9300D000D0A5
:101BC000CDB7DEB78C8381E090E09A8389831B8256
:101BD00011C089819A819C01220F331FC901880F8E
:101BE000991F880F991F820F931F9A8389838B8176
:101BF0008F5F8B839B818C81981758F389819A81A1
:101C00000F900F900F900F90CF91DF910895DF9379
:101C1000CF93CDB7DEB728970FB6F894DEBF0FBECF
:101C2000CDBF8A836B834C8319828C81813009F00C
:101C300079C08B81883008F072C08A81282F30E00B
:101C400038872F838F8198858130910549F12F81C5
:101C50003885223031052CF48F819885009761F00A
:101C60005BC02F8138852230310571F18F819885D5
:101C700083309105E9F150C0ABE3B0E0EBE3F0E075
:101C80008081482F8B81282F30E081E090E0022E68
:101C900002C0880F991F0A94E2F7842B8C93C6C068
:101CA000A8E3B0E0E8E3F0E08081482F8B81282FA3
:101CB00030E081E090E0022E02C0880F991F0A9464
:101CC000E2F7842B8C93B2C0A5E3B0E0E5E3F0E04B
:101CD0008081482F8B81282F30E081E090E0022E18
:101CE00002C0880F991F0A94E2F7842B8C939EC040
:101CF000A2E3B0E0E2E3F0E08081482F8B81282F5F
:101D000030E081E090E0022E02C0880F991F0A9413
:101D1000E2F7842B8C938AC081E0898387C081E0BD
:101D2000898384C08C81882309F07EC08B818830B0
:101D300008F077C08A81282F30E03E832D838D8183
:101D40009E818130910559F12D813E8122303105EE
:101D50002CF48D819E81009769F060C02D813E81B9
:101D60002230310589F18D819E818330910509F4FE
:101D700040C054C0ABE3B0E0EBE3F0E08081482F1B
:101D80008B81282F30E081E090E0022E02C0880F86
:101D9000991F0A94E2F7809584238C9347C0A8E3A7
:101DA000B0E0E8E3F0E08081482F8B81282F30E01D
:101DB00081E090E0022E02C0880F991F0A94E2F79A
:101DC000809584238C9332C0A5E3B0E0E5E3F0E096
:101DD0008081482F8B81282F30E081E090E0022E17
:101DE00002C0880F991F0A94E2F7809584238C9390
:101DF0001DC0A2E3B0E0E2E3F0E08081482F8B81D8
:101E0000282F30E081E090E0022E02C0880F991F59
:101E10000A94E2F7809584238C9308C081E089833B
:101E200005C081E0898302C081E089838981289689
:101E30000FB6F894DEBF0FBECDBFCF91DF910895EE
:101E4000DF93CF9300D000D00F92CDB7DEB78A8357
:101E50006B8319828A818830B0F58A81282F30E01F
:101E60003D832C838C819D8181309105D1F02C8123
:101E70003D81223031052CF48C819D81009761F0E9
:101E80001FC02C813D812230310581F08C819D81E4
:101E90008330910581F014C0EBE3F0E08B81808307
:101EA00014C0E8E3F0E08B8180830FC0E5E3F0E04D
:101EB0008B8180830AC0E2E3F0E08B81808305C0E0
:101EC00081E0898302C081E0898389810F900F902E
:101ED0000F900F900F90CF91DF910895DF93CF93E4
:101EE000CDB7DEB727970FB6F894DEBF0FBECDBFD4
:101EF0008A836B835D834C8319828C819D810097DB
:101F000009F47BC08B81883008F074C08A81282F47
:101F100030E03F832E834E815F814130510559F17E
:101F20008E819F818230910534F42E813F8121156D
:101F3000310569F05CC04E815F814230510579F115
:101F40008E819F818330910509F43DC050C0E9E343
:101F5000F0E08081282F30E08B81882F90E0A9016C
:101F600002C0559547958A95E2F7CA018170EC81C8
:101F7000FD81808344C0E6E3F0E08081282F30E0DB
:101F80008B81882F90E0A90102C0559547958A95CD
:101F9000E2F7CA018170EC81FD81808330C0E3E308
:101FA000F0E08081282F30E08B81882F90E0A9011C
:101FB00002C0559547958A95E2F7CA018170EC8178
:101FC000FD8180831CC0E0E3F0E08081282F30E0B9
:101FD0008B81882F90E0A90102C0559547958A957D
:101FE000E2F7CA018170EC81FD81808308C081E045
:101FF000898305C081E0898302C082E08983898169
:1020000027960FB6F894DEBF0FBECDBFCF91DF91FC
:102010000895DF93CF9300D000D00F92CDB7DEB7F5
:102020008A836B8319828B81883008F072C08A8121
:10203000282F30E03D832C838C819D818130910558
:1020400049F12C813D81223031052CF48C819D8118
:10205000009761F05BC02C813D812230310571F128
:102060008C819D8183309105E9F150C0ABE3B0E0F4
:10207000EBE3F0E08081482F8B81282F30E081E076
:1020800090E0022E02C0880F991F0A94E2F784277D
:102090008C9341C0A8E3B0E0E8E3F0E08081482FF2
:1020A0008B81282F30E081E090E0022E02C0880F63
:1020B000991F0A94E2F784278C932DC0A5E3B0E022
:1020C000E5E3F0E08081482F8B81282F30E081E02C
:1020D00090E0022E02C0880F991F0A94E2F784272D
:1020E0008C9319C0A2E3B0E0E2E3F0E08081482FD6
:1020F0008B81282F30E081E090E0022E02C0880F13
:10210000991F0A94E2F784278C9305C081E08983A4
:1021100002C081E0898389810F900F900F900F900A
:102120000F90CF91DF910895DF93CF9300D00F925E
:10213000CDB7DEB79B838A831982EA81FB818281D6
:10214000813059F4EA81FB818081EA81FB819181B0
:10215000692F41E00E94070E12C0EA81FB81828153
:10216000882359F4EA81FB818081EA81FB81918196
:10217000692F40E00E94070E02C081E089838981B7
:102180000F900F900F90CF91DF910895DF93CF9331
:1021900000D00F92CDB7DEB79B838A831982EA8184
:1021A000FB818281813059F4EA81FB818081EA815F
:1021B000FB819181692F40E00E94070E12C0EA81E5
:1021C000FB818281882359F4EA81FB818081EA8145
:1021D000FB819181692F41E00E94070E02C081E0DE
:1021E000898389810F900F900F90CF91DF9108958F
:1021F000DF93CF9300D00F92CDB7DEB79B838A8356
:102200001982EA81FB818281813099F49091770172
:1022100081E0892780937701EA81FB818081EA81CF
:10222000FB81918120917701692F422F0E94070E37
:102230001AC0EA81FB818281882399F49091770109
:1022400081E0892780937701EA81FB818081EA819F
:10225000FB81918120917701692F422F0E94070E07
:1022600002C081E0898389810F900F900F90CF91F8
:10227000DF910895DF93CF93CDB7DEB7EAE3F0E0C7
:1022800080EF8083E7E3F0E087E08083E4E3F0E041
:102290001082E1E3F0E01082EBE3F0E01082E8E38B
:1022A000F0E080EE8083E5E3F0E01082E2E3F0E02E
:1022B0001082CF91DF910895DF93CF9300D000D0AB
:1022C000CDB7DEB78A837C836B831982EB81FC8177
:1022D0008081882391F4EB81FC8121818A81882F80
:1022E00090E0FC01E459FE4F8081982F9095822F59
:1022F000692F0E94200F898317C0EB81FC818081A8
:10230000813081F4EB81FC8121818A81882F90E0EA
:10231000FC01E459FE4F9081822F692F0E94200F0B
:10232000898302C081E0898389810F900F900F908B
:102330000F90CF91DF910895DF93CF9300D00F924C
:10234000CDB7DEB79B838A831982EA81FB818081C6
:10235000882361F4EA81FB818281EA81FB81938198
:10236000692F41E00E94070E898313C0EA81FB8137
:102370008081813061F4EA81FB818281EA81FB8185
:102380009381692F40E00E94070E898302C081E09B
:10239000898389810F900F900F90CF91DF910895DD
:1023A000DF93CF9300D00F92CDB7DEB79B838A83A4
:1023B0001982EA81FB818081882361F4EA81FB81B3
:1023C0008281EA81FB819381692F40E00E94070EA0
:1023D000898313C0EA81FB818081813061F4EA81C5
:1023E000FB818281EA81FB819381692F41E00E9418
:1023F000070E898302C081E0898389810F900F9045
:102400000F90CF91DF910895DF93CF93CDB7DEB7D3
:10241000A1970FB6F894DEBF0FBECDBF9F8F8E8FF2
:1024200079A368A31D8EE8A1F9A181E08083EE8DD8
:10243000FF8D8281882309F0C3C0EE8DFF8D8381DB
:10244000813009F09CC0EE8DFF8D8081EE8DFF8D77
:10245000918128E731E0692FA9010E946E0F8091D8
:102460007801882309F06DC180E090E0A6E1B3E433
:10247000898F9A8FAB8FBC8F698D7A8D8B8D9C8D58
:1024800020E030E04AEF54E40E941F02DC01CB015F
:102490008D8B9E8BAF8BB88F6D897E898F89988D40
:1024A00020E030E040E85FE30E94250488232CF41C
:1024B00081E090E09C8B8B8B3FC06D897E898F89FA
:1024C000988D20E03FEF4FE757E40E94C5031816B0
:1024D0004CF5698D7A8D8B8D9C8D20E030E040E24B
:1024E00051E40E941F02DC01CB01BC01CD010E941E
:1024F0004900DC01CB019C8B8B8B0FC088EC90E0FA
:102500009A8B898B89899A890197F1F79A8B898BA4
:102510008B899C8901979C8B8B8B8B899C890097DD
:1025200069F714C06D897E898F89988D0E94490052
:10253000DC01CB019C8B8B8B8B899C89988B8F8743
:102540008F8598890197F1F7988B8F87EE8DFF8D96
:102550008081EE8DFF8D918128E731E0692FA901FF
:102560000E946E0F80917801882321F4E8A1F9A1DF
:102570001082E7C0E8A1F9A181E08083E2C0EE8D7E
:10258000FF8D83818823C9F4EE8DFF8D8081EE8DD0
:10259000FF8D918128A139A1692FA9010E946E0F99
:1025A00080917801882321F4E8A1F9A11082C9C0A3
:1025B000E8A1F9A181E08083C4C081E08D8FC1C012
:1025C000EE8DFF8D8281813009F0B9C0EE8DFF8DD7
:1025D0008381813009F097C0EE8DFF8D8081EE8D73
:1025E000FF8D918128E731E0692FA9010E946E0FCC
:1025F00080917801813009F0A4C080E090E0A6E1EC
:10260000B3E48B879C87AD87BE876B857C858D8582
:102610009E8520E030E04AEF54E40E941F02DC0176
:10262000CB018F839887A987BA876F817885898541
:102630009A8520E030E040E85FE30E94250488238B
:102640002CF481E090E09E838D833FC06F8178857C
:1026500089859A8520E03FEF4FE757E40E94C50344
:1026600018164CF56B857C858D859E8520E030E0C5
:1026700040E251E40E941F02DC01CB01BC01CD010C
:102680000E944900DC01CB019E838D830FC088EC42
:1026900090E09C838B838B819C810197F1F79C83D5
:1026A0008B838D819E8101979E838D838D819E81F9
:1026B000009769F714C06F81788589859A850E9493
:1026C0004900DC01CB019E838D838D819E819A839D
:1026D000898389819A810197F1F79A838983EE8DA5
:1026E000FF8D8081EE8DFF8D918128E731E0692F8C
:1026F000A9010E946E0F80917801813011F5E8A147
:10270000F9A110821EC0EE8DFF8D83818823A1F474
:10271000EE8DFF8D8081EE8DFF8D918128A139A1F5
:10272000692FA9010E946E0F80917801813049F4D0
:10273000E8A1F9A1108205C081E08D8F02C081E07F
:102740008D8F8D8DA1960FB6F894DEBF0FBECDBFD5
:10275000CF91DF910895DF93CF9300D000D00F92F7
:10276000CDB7DEB79B838A837D836C831982EC812E
:10277000FD8181E08083EA81FB818281882309F0E9
:1027800076C010927A01EA81FB818381813009F061
:102790004DC0EA81FB818081EA81FB81918129E73B
:1027A00031E0692FA9010E946E0F80917901882381
:1027B00009F0C4C0EA81FB818081EA81FB819181BB
:1027C00029E731E0692FA9010E946E0F80917901FC
:1027D000882309F0B3C080917C018F5F80937C01D6
:1027E00080917C01853198F080917A01882361F491
:1027F000EC81FD811082EA81FB810480F581E02D6E
:10280000099581E080937A0110927C0197C08091B4
:102810007B018F5F80937B0180917B01853108F480
:102820008DC010927A0110927B0188C0EA81FB81F1
:1028300083818823C9F4EA81FB818081EA81FB815D
:1028400091812C813D81692FA9010E946E0F809199
:102850007901882321F4EC81FD8110826FC0EC8125
:10286000FD8181E080836AC081E0898367C0EA815D
:10287000FB818281813009F05FC081E080937A0121
:10288000EA81FB8183818130D9F5EA81FB818081F6
:10289000EA81FB81918129E731E0692FA9010E943A
:1028A0006E0F80917901813009F048C080917C01E0
:1028B0008F5F80937C0180917C01853190F08091C5
:1028C0007A01813059F4EC81FD811082EA81FB812B
:1028D0000480F581E02D099510927A0110927C0117
:1028E0002DC080917B018F5F80937B0180917B0164
:1028F000853120F181E080937A0110927B011EC026
:10290000EA81FB8183818823A1F4EA81FB818081B4
:10291000EA81FB8191812C813D81692FA9010E946F
:102920006E0F80917901813049F4EC81FD81108234
:1029300005C081E0898302C081E0898389810F908D
:102940000F900F900F900F90CF91DF910895EF921D
:10295000FF920F931F93DF93CF93CDB7DEB7A99765
:102960000FB6F894DEBF0FBECDBF0E943A110E9491
:10297000F80A88E0FE013796DF01282F1D922A957C
:10298000E9F784E08F838EE0888785E1898784E09A
:102990008A8784E08B8784E08C8784E08D8786E05B
:1029A000FE013F96DF01282F1D922A95E9F781E06D
:1029B0008F8787E0888B81E08A8B86E0FE017596A1
:1029C000DF01282F1D922A95E9F781E08D8B86E0A3
:1029D0008E8B81E0888F86E0FE017B96DF01282FB9
:1029E0001D922A95E9F781E08B8F85E08C8F81E03D
:1029F0008E8F81E08E838BE28CA38DE28DA38AE2A1
:102A00008EA38FE28FA381E08D831C8280E80E94D9
:102A100075078E81882F90E00E947A0D8C81282F77
:102A200030E0CE018496FC01E20FF31F80810E940A
:102A300053098D81882F90E00E947A0DCE01079670
:102A400060E041E020E00E94390DCE010F969E012A
:102A50002F5D3F4FB9010E940412CE014B969E019B
:102A60002E5D3F4FB9010E94041280E060E00E9499
:102A7000140D8E81882F90E00E947A0D8AA1882300
:102A800039F48E818F5F8E838E818A3008F01E82AA
:102A9000CE0145969E012D5D3F4FB9010E94041263
:102AA0008BA1882341F48E8181508E838E818A3060
:102AB00010F089E08E8389A1813039F281E060E0F5
:102AC0000E94140D80E20E945309CE01079660E037
:102AD00041E021E00E94390DCE010F969E012F5D4D
:102AE0003F4FB9010E940412CE014B969E012E5D0C
:102AF0003F4FB9010E94041280E061E00E94140D72
:102B00008C81282F30E0CE018496FC01E20FF31F68
:102B100080810E9453098AA1882339F48C818F5FB8
:102B20008C838C81843008F01C82CE0145969E01F6
:102B30002D5D3F4FB9010E9404128BA1882341F4FF
:102B40008C8181508C838C81843010F083E08C8365
:102B500089A1813009F281E061E00E94140D80E2D8
:102B60000E945309CE01079660E041E022E00E94F6
:102B7000390DCE010F969E012F5D3F4FB9010E9486
:102B80000412CE014B969E012E5D3F4FB9010E946B
:102B9000041280E062E00E94140D8D81882F90E085
:102BA0000E947A0D8AA1882339F48D818F5F8D83ED
:102BB0008D818A3008F01D82CE0145969E012D5DE3
:102BC0003F4FB9010E9404128BA1882341F48D81EB
:102BD00081508D838D818A3010F089E08D8389A1A9
:102BE000813039F281E062E00E94140D80E20E949F
:102BF000530980E063E00E94140D8DE30E945309A5
:102C00008C81282F30E0CE018496FC01E20FF31F67
:102C10008081A82FB0E0B9A7A8A728A539A52B3295
:102C20003105B1F088A599A58C32910534F4A8A599
:102C3000B9A5AA32B10561F1A5C028A539A52D32E3
:102C4000310581F088A599A58F32910569F19AC067
:102C50009E818D81890F8B838B81882F90E00E94CC
:102C60007A0D90C09E818D81981740F48D819E8150
:102C7000891B8B838DE20E94530904C08E819D8144
:102C8000891B8B838B81882F90E00E947A0D7AC0FC
:102C90009E818D81989F802D11248B838B81882F1D
:102CA00090E00E947A0D6EC08D81882329F480E621
:102CB00090E00E94EB0C66C08E819D81692F0E947E
:102CC000D1168A838E81882F90E0AA2797FDA09540
:102CD000BA2FBC01CD010E9455047B018C018D816E
:102CE000882F90E0A0E0B0E0BC01CD010E94070574
:102CF0009B01AC01C801B7010E941903DC01CB01A3
:102D00007C018D018A81882F90E0A0E0B0E0BC01B9
:102D1000CD010E9407059B01AC01C801B7010E94CB
:102D2000C101DC01CB01BC01CD0120E030E04AE76C
:102D300054E40E941F02DC01CB01BC01CD010E94C2
:102D40004900DC01CB0189838981882331F48A81A0
:102D5000882F90E00E947A0D15C08A81882F90E01C
:102D60000E947A0D80E065E00E94140D8EE20E94C0
:102D7000530980E066E00E94140D8981882F90E05D
:102D80000E947A0DCE010F969E012F5D3F4FB90133
:102D90000E94041289A18130A9F381E00E94750785
:102DA00035CE991B79E004C0991F961708F0961B41
:102DB000881F7A95C9F780950895AA1BBB1B51E11E
:102DC00007C0AA1FBB1FA617B70710F0A61BB70B9B
:102DD000881F991F5A95A9F780959095BC01CD0140
:102DE00008952F923F924F925F926F927F928F92AF
:102DF0009F92AF92BF92CF92DF92EF92FF920F938A
:102E00001F93CF93DF93CDB7DEB7CA1BDB0B0FB693
:102E1000F894DEBF0FBECDBF09942A883988488850
:102E20005F846E847D848C849B84AA84B984C884E6
:102E3000DF80EE80FD800C811B81AA81B981CE0FDD
:102E4000D11D0FB6F894DEBF0FBECDBFED010895C2
:042E5000F894FFCF24
:102E5400696E66000000000000000000000102022C
:102E6400030303030404040404040404050505051E
:102E740005050505050505050505050506060606FA
:102E840006060606060606060606060606060606DE
:102E940006060606060606060606060607070707CA
:102EA40007070707070707070707070707070707AE
:102EB400070707070707070707070707070707079E
:102EC400070707070707070707070707070707078E
:102ED400070707070707070707070707080808087A
:102EE400080808080808080808080808080808085E
:102EF400080808080808080808080808080808084E
:102F0400080808080808080808080808080808083D
:102F1400080808080808080808080808080808082D
:102F2400080808080808080808080808080808081D
:102F3400080808080808080808080808080808080D
:102F440008080808080808080808080808080808FD
:102F54000808080808080808080808083F065B4F1E
:062F6400666D7D077F6F22
:00000001FF
